:020000040800F2
:10000000002800205D070008590600085F06000868
:10001000650600086B060008710600080000000075
:10002000000000000000000000000000770600084B
:1000300083060008000000008F0600089B060008E9
:10004000A5070008A5070008A5070008A5070008E0
:10005000A5070008A5070008A5070008A5070008D0
:10006000A5070008A5070008A5070008A5070008C0
:10007000A5070008A5070008A5070008A5070008B0
:10008000A5070008A5070008A9060008A50700089D
:10009000A5070008A5070008A5070008A507000890
:1000A000A5070008A5070008A5070008A507000880
:1000B000BD060008A507000800000000A50700080D
:1000C000A50700080000000000000000A5070008C8
:1000D00000000000A5070008D1060008000000008D
:1000E000A5070008A5070008A507000800000000F4
:1000F0000000000000000000000000000000000000
:0C01000000000000000000005FF808F1A3
:10010C0010B5054C237833B9044B13B10448AFF345
:10011C0000800123237010BD70000020000000003F
:10012C00443E000808B5034B1BB103490348AFF329
:10013C00008008BD0000000074000020443E000850
:10014C0080B582B000AF78607B681B68084A934228
:10015C000AD1322301220749074802F0D6FC0122BA
:10016C000449054802F063FD00BF0837BD4680BD59
:10017C0000440040480100200401002080B59CB0E0
:10018C0000AF00F00BFB00F049F800F04BF900F069
:10019C001FF900F093F800F0CFF81A4800F084FB38
:1001AC00184800F059FC184802F0C4F8012217490D
:1001BC00174802F03CFD134800F0FCFC0223FB66E0
:1001CC00104800F0ADFD0346A7F86A302021114815
:1001DC0001F076FBB7F86A10FB6E5A1CFA663846CB
:1001EC000A460D4903F0AEF978667B6E9AB2394631
:1001FC004FF47A73064802F088FC4FF4FA7000F062
:10020C002FFBDDE78C000020BC0000204801002003
:10021C0004010020000801405C3E000880B594B049
:10022C0000AF07F1280328220021184603F082F9B9
:10023C0007F1140300221A605A609A60DA601A619E
:10024C003B1D00221A605A609A60DA600223BB627E
:10025C000123BB631023FB6300237B6407F128039A
:10026C00184601F047FB0346002B01D000F00CF9B7
:10027C000F237B610023BB610023FB6100233B62E6
:10028C0000237B6207F114030021184601F0B4FD32
:10029C000346002B01D000F0F7F802237B6000230B
:1002AC00FB603B1D184601F03FFF0346002B01D0BD
:1002BC0000F0EAF800BF5037BD4680BD80B584B071
:1002CC0000AF3B1D00221A605A609A60184B194A05
:1002DC001A60174B00229A60154B01221A73144BAB
:1002EC0000221A75124B4FF46022DA61104B002277
:1002FC005A600F4B01221A610D4800F0D5FA0346E3
:10030C00002B01D000F0C0F800237B600123BB6000
:10031C000723FB603B1D1946054800F0E3FD03462F
:10032C00002B01D000F0B0F800BF1037BD4680BDE7
:10033C008C0000200024014080B586B000AF07F18E
:10034C00080300221A605A609A60DA603B46002269
:10035C001A605A601D4B4FF080421A601B4B41F6DD
:10036C003F725A60194B00229A60184B0922DA60CE
:10037C00164B00221A61154B00229A61134801F0AA
:10038C0089FF0346002B01D000F07EF84FF4805318
:10039C00BB6007F1080319460C4802F01FF903462D
:1003AC00002B01D000F070F800233B6000237B6031
:1003BC003B461946054802F0F1FA0346002B01D0E2
:1003CC0000F062F800BF1837BD4680BDBC000020AD
:1003DC0080B500AF114B124A1A60104B4FF41652F5
:1003EC005A600E4B00229A600C4B0022DA600B4BC9
:1003FC0000221A61094B0C225A61084B00229A61A7
:10040C00064B0022DA61054802F032FB0346002B52
:10041C0001D000F039F800BF80BD00BF04010020FE
:10042C000044004080B586B000AF07F108030022FD
:10043C001A605A609A60DA60114B9B69104A43F05B
:10044C00040393610E4B9B6903F004037B607B6890
:10045C00002220210B4801F01BFA2023BB60012352
:10046C00FB6000233B6102237B6107F10803194603
:10047C00044801F091F800BF1837BD4680BD00BF9D
:10048C00001002400008014080B400AF72B600BFFB
:10049C00FEE7000080B483B000AF0E4B9B690D4AA1
:1004AC0043F0010393610B4B9B6903F001037B60E9
:1004BC007B68084BDB69074A43F08053D361054BDB
:1004CC00DB6903F080533B603B6800BF0C37BD46D3
:1004DC0080BC70470010024080B588B000AF7860D7
:1004EC0007F1100300221A605A609A60DA607B6888
:1004FC001B68184A934229D1174B9B69164A43F43F
:10050C0000739361144B9B6903F40073FB60FB68ED
:10051C00114B9B69104A43F0040393610E4B9B698A
:10052C0003F00403BB60BB6801233B6103237B61C5
:10053C0007F110031946094801F02EF8002200219A
:10054C00122000F042FF122000F05BFF00BF2037AA
:10055C00BD4680BD0024014000100240000801404F
:10056C0080B584B000AF78607B681B68B3F1804FB6
:10057C0013D10C4BDB690B4A43F00103D361094BDC
:10058C00DB6903F00103FB60FB68002200211C20E7
:10059C0000F01BFF1C2000F034FF00BF1037BD46DD
:1005AC0080BD00BF0010024080B588B000AF7860FD
:1005BC0007F1100300221A605A609A60DA607B68B7
:1005CC001B681F4A934237D11E4BDB691D4A43F40B
:1005DC000033D3611B4BDB6903F40033FB60FB6816
:1005EC00184B9B69174A43F004039361154B9B69A5
:1005FC0003F00403BB60BB6804233B6102237B61F3
:10060C000323FB6107F1100319460F4800F0C4FFE8
:10061C0008233B6100237B610023BB6107F11003BE
:10062C001946094800F0B8FF00220021262000F0EE
:10063C00CCFE262000F0E5FE00BF2037BD4680BD75
:10064C0000440040001002400008014080B400AF9C
:10065C00FEE780B400AFFEE780B400AFFEE780B4E5
:10066C0000AFFEE780B400AFFEE780B400AF00BF80
:10067C00BD4680BC704780B400AF00BFBD4680BC97
:10068C00704780B400AF00BFBD4680BC704780B5DA
:10069C0000AF00F0C9F800BF80BD000080B500AF0E
:1006AC00024800F049FB00BF80BD00BF8C00002059
:1006BC0080B500AF024801F089FE00BF80BD00BFCD
:1006CC00BC00002080B500AF024802F0E1FA00BF88
:1006DC0080BD00BF0401002080B586B000AF7860FB
:1006EC00144A154BD31A7B617B693B61134B1B6816
:1006FC00002B02D1114B124A1A60104B1A687B68FE
:10070C0013443A699A4207D202F0EAFE03460C22DD
:10071C001A604FF0FF3309E0084B1B68FB60074B76
:10072C001A687B681344054A1360FB68184618372F
:10073C00BD4680BD00280020000400004C010020B4
:10074C006801002080B400AF00BFBD4680BC70477C
:10075C000C480D490D4A002302E0D458C450043310
:10076C00C4188C42F9D30A4A0A4C002301E01360E6
:10077C000432A242FBD3FFF7E5FF02F0B7FEFFF70E
:10078C00FDFC70470000002070000020D03E0008E7
:10079C007000002064010020FEE7000080B500AF6F
:1007AC00084B1B68074A43F010031360032000F04A
:1007BC0001FE0F2000F008F8FFF76CFE002318462E
:1007CC0080BD00BF0020024080B582B000AF7860D1
:1007DC00124B1A68124B1B7819464FF47A73B3FB01
:1007EC00F1F3B2FBF3F3184600F019FE0346002BAD
:1007FC0001D001230EE07B680F2B0AD80022796808
:10080C004FF0FF3000F0E1FD064A7B6813600023D7
:10081C0000E0012318460837BD4680BD00000020CB
:10082C00080000200400002080B400AF054B1B78AA
:10083C001A46054B1B681344034A136000BFBD46A0
:10084C0080BC7047080000205001002080B400AF2D
:10085C00024B1B681846BD4680BC704750010020F7
:10086C0080B584B000AF7860FFF7F0FFB8607B68AC
:10087C00FB60FB68B3F1FF3F05D00A4B1B781A46AF
:10088C00FB681344FB6000BFFFF7E0FF0246BB6848
:10089C00D31AFA689A42F7D800BF00BF1037BD468A
:1008AC0080BD00BF0800002080B586B000AF786026
:1008BC000023FB7500233B610023BB600023FB601E
:1008CC007B68002B01D10123BEE07B689B68002B69
:1008DC007B689B6A002B09D17B680022DA627B68FB
:1008EC00002283F824207868FFF7F6FD786800F082
:1008FC004BFC0346FB757B689B6A03F01003002BD3
:10090C0040F09980FB7D002B40F095807B689B6AC2
:10091C0023F4885323F0020343F002027B689A62AB
:10092C007B685A687B68DB691A437B681B7B5B00BE
:10093C001343BA681343BB607B689B68B3F5807F35
:10094C0003D07B689B68012B02D14FF4807300E0CD
:10095C0000233A6913433B617B681B7D012B19D142
:10096C007B681B7B002B09D17B689B69013B5A037D
:10097C003B69134343F400633B610BE07B689B6A68
:10098C0043F020027B689A627B68DB6A43F00102C9
:10099C007B68DA627B681B685B6823F469417B685F
:1009AC001B683A690A435A607B681B689A68284B33
:1009BC0013407A681268B9680B4393607B689B6834
:1009CC00B3F5807F03D07B689B68012B04D17B68D7
:1009DC001B69013B1B05FB607B681B68DB6A23F40E
:1009EC0070017B681B68FA680A43DA627B681B68D3
:1009FC009A68184B1340BA689A420BD17B68002254
:100A0C00DA627B689B6A23F0030343F001027B6884
:100A1C009A6218E07B689B6A23F0120343F0100281
:100A2C007B689A627B68DB6A43F001027B68DA625E
:100A3C000123FB7507E07B689B6A43F010027B681F
:100A4C009A620123FB75FB7D18461837BD4680BDA5
:100A5C00FDF7E1FFFE0E1FFF80B584B000AF78609C
:100A6C000023FB737B6893F82430012B01D1022304
:100A7C0098E07B68012283F82420786800F02AFB38
:100A8C000346FB73FB7B002B40F087807B689B6AE3
:100A9C0023F4407323F0010343F480727B689A6261
:100AAC007B681B68414A934205D1414B5B6803F458
:100ABC007023002B15D17B689B6A23F480127B6812
:100ACC009A627B681B685B6803F48063002B26D0FA
:100ADC007B689B6A23F4405343F480527B689A6290
:100AEC001DE07B689B6A43F480127B689A627B688A
:100AFC001B682F4A934204D07B681B682B4A934295
:100B0C000DD12B4B5B6803F48063002B07D07B6803
:100B1C009B6A23F4405343F480527B689A627B684F
:100B2C009B6A03F48053002B06D07B68DB6A23F0AE
:100B3C0006027B68DA6202E07B680022DA627B687C
:100B4C00002283F824207B681B686FF002021A6075
:100B5C007B681B689B6803F46023B3F5602F13D18B
:100B6C007B681B68114A934205D1114B5B6803F4F7
:100B7C007023002B08D17B681B689A687B681B6804
:100B8C0042F4A0029A600CE07B681B689A687B6850
:100B9C001B6842F480129A6003E07B68002283F8A1
:100BAC002420FB7B18461037BD4680BD0028014031
:100BBC000024014080B584B000AF78600023FB7343
:100BCC007B6893F82430012B01D10223A0E07B68D1
:100BDC00012283F82420786800F07CFA0346FB732A
:100BEC00FB7B002B40F08F807B689B6A23F4706347
:100BFC0023F0010343F480727B689A627B681B6864
:100C0C00454A934205D1454B5B6803F47023002B96
:100C1C0015D17B689B6A23F480127B689A627B688F
:100C2C001B685B6803F48063002B26D07B689B6A8F
:100C3C0023F4405343F480527B689A621DE07B6836
:100C4C009B6A43F480127B689A627B681B68334A08
:100C5C00934204D07B681B682F4A93420DD12F4BD3
:100C6C005B6803F48063002B07D07B689B6A23F4DA
:100C7C00405343F480527B689A627B689B6A03F40E
:100C8C008053002B06D07B68DB6A23F006027B685E
:100C9C00DA6202E07B680022DA627B68002283F869
:100CAC0024207B681B686FF002021A607B681B684B
:100CBC005A687B681B6842F020025A607B681B688C
:100CCC009B6803F46023B3F5602F13D17B681B681A
:100CDC00114A934205D1114B5B6803F47023002B2E
:100CEC0008D17B681B689A687B681B6842F4A00279
:100CFC009A600CE07B681B689A687B681B6842F4FE
:100D0C0080129A6003E07B68002283F82420FB7B2E
:100D1C0018461037BD4680BD002801400024014014
:100D2C0080B483B000AF78607B681B68DB6C1846BE
:100D3C000C37BD4680BC704780B582B000AF786080
:100D4C007B681B685B6803F02003202B40D17B6819
:100D5C001B681B6803F00203022B39D17B689B6A6A
:100D6C0003F01003002B05D17B689B6A43F40072DF
:100D7C007B689A627B681B689B6803F46023B3F5FD
:100D8C00602F1DD17B681B7B002B19D17B681B68E6
:100D9C005A687B681B6822F020025A607B689B6A49
:100DAC0023F480727B689A627B689B6A03F480539D
:100DBC00002B05D17B689B6A43F001027B689A6229
:100DCC00786800F07CF87B681B686FF012021A6080
:100DDC007B681B685B6803F08003802B4FD17B68BA
:100DEC001B681B6803F00403042B48D17B689B6AC7
:100DFC0003F01003002B05D17B689B6A43F400526F
:100E0C007B689A627B681B689B6803F4E043B3F5CC
:100E1C00E04F12D07B681B685B6803F48063002B87
:100E2C0025D17B681B689B6803F46023B3F5602FA6
:100E3C001DD17B681B7B002B19D17B681B685A6802
:100E4C007B681B6822F080025A607B689B6A23F4E3
:100E5C0080527B689A627B689B6A03F48073002BD8
:100E6C0005D17B689B6A43F001027B689A627868C3
:100E7C0000F0CBF97B681B686FF00C021A607B6882
:100E8C001B685B6803F04003402B14D17B681B6824
:100E9C001B6803F00103012B0DD17B689B6A43F4A3
:100EAC0080327B689A62786800F012F87B681B6865
:100EBC006FF001021A6000BF0837BD4680BD80B4D8
:100ECC0083B000AF786000BF0C37BD4680BC704764
:100EDC0080B483B000AF786000BF0C37BD4680BCD7
:100EEC007047000080B485B000AF78603960002393
:100EFC00FB730023BB607B6893F82430012B01D17A
:100F0C000223DCE07B68012283F824203B685B68C9
:100F1C00062B1CD87B681B68596B3B685A681346B8
:100F2C009B001344053B1F2202FA03F3DB431940D9
:100F3C003B6818683B685A6813469B001344053B92
:100F4C0000FA03F27B681B680A435A633CE03B6877
:100F5C005B680C2B1CD87B681B68196B3B685A6848
:100F6C0013469B001344233B1F2202FA03F3DB437B
:100F7C0019403B6818683B685A6813469B00134439
:100F8C00233B00FA03F27B681B680A431A631BE0DD
:100F9C007B681B68D96A3B685A6813469B001344EC
:100FAC00413B1F2202FA03F3DB4319403B681868EC
:100FBC003B685A6813469B001344413B00FA03F20A
:100FCC007B681B680A43DA623B681B68092B1CD9D7
:100FDC007B681B68D9683B681A6813465B0013442E
:100FEC001E3B072202FA03F3DB4319403B68986867
:100FFC003B681A6813465B0013441E3B00FA03F26D
:10100C007B681B680A43DA6019E07B681B68196906
:10101C003B681A6813465B001344072202FA03F379
:10102C00DB4319403B6898683B681A6813465B00C1
:10103C00134400FA03F27B681B680A431A613B688D
:10104C001B68102B03D03B681B68112B32D17B68BB
:10105C001B681D4A934225D17B681B689B6803F46F
:10106C000003002B26D17B681B689A687B681B6881
:10107C0042F400029A603B681B68102B1AD1134B88
:10108C001B68134AA2FB03239A0C13469B001344C0
:10109C005B00BB6002E0BB68013BBB60BB68002B24
:1010AC00F9D107E07B689B6A43F020027B689A6267
:1010BC000123FB737B68002283F82420FB7B1846FA
:1010CC001437BD4680BC704700240140000000204E
:1010DC0083DE1B4380B584B000AF78600023FB60D7
:1010EC000023BB607B681B689B6803F00103012B2A
:1010FC0040D07B681B689A687B681B6842F00102D1
:10110C009A601F4B1B681F4AA2FB03239B0CBB60FE
:10111C0002E0BB68013BBB60BB68002BF9D1FFF759
:10112C0095FBF8601FE0FFF791FB0246FB68D31AB2
:10113C00022B18D97B681B689B6803F00103012BF9
:10114C0011D07B689B6A43F010027B689A627B68C3
:10115C00DB6A43F001027B68DA627B68002283F869
:10116C002420012307E07B681B689B6803F00103C4
:10117C00012BD8D1002318461037BD4680BD00BFC7
:10118C000000002083DE1B4380B584B000AF786084
:10119C000023FB607B681B689B6803F00103012B39
:1011AC002ED17B681B689A687B681B6822F0010251
:1011BC009A60FFF74BFBF8601BE0FFF747FB02461A
:1011CC00FB68D31A022B14D97B681B689B6803F04D
:1011DC000103012B0DD17B689B6A43F010027B68E5
:1011EC009A627B68DB6A43F001027B68DA62012356
:1011FC0007E07B681B689B6803F00103012BDCD0C4
:10120C00002318461037BD4680BD80B483B000AFB4
:10121C00786000BF0C37BD4680BC704780B485B089
:10122C0000AF78607B6803F00703FB600C4BDB6856
:10123C00BB60BA684FF6FF031340BB60FB681A0231
:10124C00BB68134343F0BF6343F40033BB60044AF1
:10125C00BB68D36000BF1437BD4680BC704700BF6D
:10126C0000ED00E080B400AF044BDB681B0A03F018
:10127C0007031846BD4680BC704700BF00ED00E078
:10128C0080B483B000AF0346FB7197F90730002B95
:10129C000BDBFB7903F01F02064997F907305B095A
:1012AC00012000FA02F241F8232000BF0C37BD46A2
:1012BC0080BC704700E100E080B483B000AF03460F
:1012CC003960FB7197F90730002B0ADB3B68DAB207
:1012DC000C4997F907301201D2B20B4483F8002362
:1012EC000AE03B68DAB20849FB7903F00F03043BD0
:1012FC001201D2B20B441A7600BF0C37BD4680BC2B
:10130C00704700BF00E100E000ED00E080B489B060
:10131C0000AFF860B9607A60FB6803F00703FB610B
:10132C00FB69C3F10703042B28BF0423BB61FB69D2
:10133C000433062B02D9FB69033B00E000237B61DD
:10134C004FF0FF32BB6902FA03F3DA43BB681A4071
:10135C007B699A404FF0FF317B6901FA03F3D94363
:10136C007B680B40134318462437BD4680BC70473E
:10137C0080B582B000AF78607B68013BB3F1807FB1
:10138C0001D301230FE00A4A7B68013B53600F2114
:10139C004FF0FF30FFF790FF054B00229A60044B93
:1013AC0007221A60002318460837BD4680BD00BFCF
:1013BC0010E000E080B582B000AF78607868FFF78D
:1013CC002DFF00BF0837BD4680BD80B586B000AF8D
:1013DC000346B9607A60FB7300237B61FFF742FF21
:1013EC0078617A68B9687869FFF790FF024697F9D7
:1013FC000F3011461846FFF75FFF00BF1837BD4688
:10140C0080BD80B582B000AF0346FB7197F9073001
:10141C001846FFF735FF00BF0837BD4680BD80B5C5
:10142C0082B000AF78607868FFF7A2FF03461846D9
:10143C000837BD4680BD80B485B000AF786000230E
:10144C00FB737B6893F82130022B08D07B68042255
:10145C009A637B68002283F82020012320E07B68BC
:10146C001B681A687B681B6822F00E021A607B6886
:10147C001B681A687B681B6822F001021A607B6883
:10148C001A6C7B68DB6B012101FA02F25A607B68F3
:10149C00012283F821207B68002283F82020FB7B2B
:1014AC0018461437BD4680BC7047000080B584B028
:1014BC0000AF78600023FB737B6893F82130022B1C
:1014CC0005D07B6804229A630123FB7351E07B688F
:1014DC001B681A687B681B6822F00E021A607B6816
:1014EC001B681A687B681B6822F001021A607B6813
:1014FC001B68224A934229D07B681B68204A93427E
:10150C0022D07B681B681F4A93421AD07B681B68E9
:10151C001D4A934212D07B681B681C4A93420AD026
:10152C007B681B681A4A934202D14FF480130EE079
:10153C004FF080730BE04FF4803308E04FF480538E
:10154C0005E04FF4807302E0102300E00123114A00
:10155C0053607B68012283F821207B68002283F88A
:10156C0020207B685B6B002B03D07B685B6B7868FF
:10157C009847FB7B18461037BD4680BD08000240DB
:10158C001C0002403000024044000240580002405F
:10159C006C0002400000024080B48BB000AF786059
:1015AC00396000237B6200233B6261E101227B6A8C
:1015BC0002FA03F3FB613B681B68FA691340BB61D9
:1015CC00BA69FB699A4240F050813B685B68974A64
:1015DC0093425ED0954A934275D8954A934258D01F
:1015EC00934A93426FD8934A934252D0914A934272
:1015FC0069D8914A93424CD08F4A934263D88F4A10
:10160C00934246D08D4A93425DD8122B2AD8122B86
:10161C0059D801A252F823F09F1600087916000839
:10162C008B160008CD160008D3160008D316000838
:10163C00D3160008D3160008D3160008D3160008DA
:10164C00D3160008D3160008D3160008D3160008CA
:10165C00D3160008D3160008D3160008811600080C
:10166C0095160008764A934213D02CE03B68DB6851
:10167C003B6229E03B68DB6804333B6224E03B6857
:10168C00DB6808333B621FE03B68DB680C333B6272
:10169C001AE03B689B68002B02D104233B6213E0E9
:1016AC003B689B68012B05D108233B627B68FA6978
:1016BC001A6109E008233B627B68FA695A6103E00E
:1016CC0000233B6200E000BFBB69FF2B01D87B68A5
:1016DC0001E07B6804337B61BB69FF2B02D87B6A1A
:1016EC009B0002E07B6A083B9B003B617B691A68AC
:1016FC000F213B6901FA03F3DB431A40396A3B695A
:10170C0001FA03F31A437B691A603B685B6803F0C8
:10171C008053002B00F0A9804A4B9B69494A43F047
:10172C0001039361474B9B6903F00103BB60BB68EA
:10173C00454A7B6A9B08023352F82330FB607B6A74
:10174C0003F003039B000F2202FA03F3DB43FA6856
:10175C001340FB607B683D4A93420DD07B683C4A4A
:10176C00934207D07B683B4A934201D1022304E0A9
:10177C00032302E0012300E000237A6A02F0030253
:10178C0092009340FA681343FB602F497B6A9B08D5
:10179C000233FA6841F823203B685B6803F480331A
:1017AC00002B06D02C4B1A682B49BB6913430B60DA
:1017BC0006E0294B1A68BB69DB43274913400B60D1
:1017CC003B685B6803F40033002B06D0224B5A684D
:1017DC002149BB6913434B6006E01F4B5A68BB6938
:1017EC00DB431D4913404B603B685B6803F480137B
:1017FC00002B06D0184B9A681749BB6913438B60B2
:10180C0006E0154B9A68BB69DB43134913408B60A8
:10181C003B685B6803F40013002B1FD00E4BDA6897
:10182C000D49BB691343CB601FE000BF00003210B1
:10183C0000003110000022100000211000001210D6
:10184C00000011100010024000000140000801408F
:10185C00000C014000100140000401400B4BDA6801
:10186C00BB69DB4309491340CB607B6A01337B6264
:10187C003B681A687B6A22FA03F3002B7FF496AE5E
:10188C0000BF00BF2C37BD4680BC70470004014030
:10189C0080B483B000AF78600B467B8013467B70BE
:1018AC007B78002B03D07A887B681A6103E07B88F5
:1018BC001A047B681A6100BF0C37BD4680BC7047A8
:1018CC0080B485B000AF78600B467B807B68DB68AA
:1018DC00FB607A88FB6813401A04FB68D9437B8849
:1018EC000B401A437B681A6100BF1437BD4680BC9D
:1018FC007047000080B586B000AF78607B68002B25
:10190C0001D1012372E27B681B6803F00103002BF9
:10191C0000F08780924B5B6803F00C03042B0CD017
:10192C008F4B5B6803F00C03082B12D18C4B5B685C
:10193C0003F48033B3F5803F0BD1894B1B6803F460
:10194C000033002B6CD07B685B68002B68D10123C3
:10195C004CE27B685B68B3F5803F06D1804B1B681B
:10196C007F4A43F4803313602EE07B685B68002B66
:10197C000CD17B4B1B687A4A23F480331360784B71
:10198C001B68774A23F4802313601DE07B685B6837
:10199C00B3F5A02F0CD1724B1B68714A43F4802312
:1019AC0013606F4B1B686E4A43F4803313600BE07B
:1019BC006B4B1B686A4A23F480331360684B1B68BB
:1019CC00674A23F4802313607B685B68002B13D079
:1019DC00FEF73CFF386108E0FEF738FF02463B6932
:1019EC00D31A642B01D9032300E25D4B1B6803F46B
:1019FC000033002BF0D014E0FEF728FF386108E02C
:101A0C00FEF724FF02463B69D31A642B01D903234A
:101A1C00ECE1534B1B6803F40033002BF0D100E0D6
:101A2C0000BF7B681B6803F00203002B63D04C4B98
:101A3C005B6803F00C03002B0BD0494B5B6803F085
:101A4C000C03082B1CD1464B5B6803F48033002B32
:101A5C0016D1434B1B6803F00203002B05D07B68A7
:101A6C001B69012B01D00123C0E13D4B1B6823F006
:101A7C00F8027B685B69DB00394913430B603AE081
:101A8C007B681B69002B20D0364B01221A60FEF7B5
:101A9C00DDFE386108E0FEF7D9FE02463B69D31A39
:101AAC00022B01D90323A1E12D4B1B6803F0020388
:101ABC00002BF0D02A4B1B6823F0F8027B685B6983
:101ACC00DB00274913430B6015E0264B00221A60FC
:101ADC00FEF7BCFE386108E0FEF7B8FE02463B6933
:101AEC00D31A022B01D9032380E11D4B1B6803F091
:101AFC000203002BF0D17B681B6803F00803002B5A
:101B0C003AD07B689B69002B19D0174B01221A60C5
:101B1C00FEF79CFE386108E0FEF798FE02463B6932
:101B2C00D31A022B01D9032360E10D4B5B6A03F03E
:101B3C000203002BF0D0012000F0D8FA1CE00A4B75
:101B4C0000221A60FEF782FE38610FE0FEF77EFE7F
:101B5C0002463B69D31A022B08D9032346E100BF86
:101B6C00001002400000424280044242924B5B6AE9
:101B7C0003F00203002BE9D17B681B6803F004031C
:101B8C00002B00F0A6800023FB758B4BDB6903F068
:101B9C008053002B0DD1884BDB69874A43F080536F
:101BAC00D361854BDB6903F08053BB60BB680123B9
:101BBC00FB75824B1B6803F48073002B18D17F4B91
:101BCC001B687E4A43F480731360FEF73FFE386156
:101BDC0008E0FEF73BFE02463B69D31A642B01D9A1
:101BEC00032303E1754B1B6803F48073002BF0D0C7
:101BFC007B68DB68012B06D16F4B1B6A6E4A43F086
:101C0C00010313622DE07B68DB68002B0CD16A4B5F
:101C1C001B6A694A23F001031362674B1B6A664A0D
:101C2C0023F0040313621CE07B68DB68052B0CD1EA
:101C3C00614B1B6A604A43F0040313625E4B1B6AE0
:101C4C005D4A43F0010313620BE05B4B1B6A5A4A7B
:101C5C0023F001031362584B1B6A574A23F0040309
:101C6C0013627B68DB68002B15D0FEF7EFFD386143
:101C7C000AE0FEF7EBFD02463B69D31A41F28832CB
:101C8C00934201D90323B1E04B4B1B6A03F00203CF
:101C9C00002BEED014E0FEF7D9FD38610AE0FEF718
:101CAC00D5FD02463B69D31A41F28832934201D9E1
:101CBC0003239BE0404B1B6A03F00203002BEED185
:101CCC00FB7D012B05D13C4BDB693B4A23F0805358
:101CDC00D3617B68DB69002B00F08780364B5B6837
:101CEC0003F00C03082B61D07B68DB69022B46D117
:101CFC00334B00221A60FEF7A9FD386108E0FEF7AD
:101D0C00A5FD02463B69D31A022B01D903236DE0D2
:101D1C00294B1B6803F00073002BF0D17B681B6A06
:101D2C00B3F5803F08D1244B5B6823F400327B6809
:101D3C009B68214913434B601F4B5B6823F474125F
:101D4C007B68196A7B685B6A0B431B4913434B60C6
:101D5C001B4B01221A60FEF779FD386108E0FEF793
:101D6C0075FD02463B69D31A022B01D903233DE0D2
:101D7C00114B1B6803F00073002BF0D035E0104BB7
:101D8C0000221A60FEF762FD386108E0FEF75EFD86
:101D9C0002463B69D31A022B01D9032326E0064BDA
:101DAC001B6803F00073002BF0D11EE07B68DB692D
:101DBC00012B07D1012319E00010024000700040F4
:101DCC00600042420B4B5B68FB60FB6803F48032A3
:101DDC007B681B6A9A4206D1FB6803F470127B681D
:101DEC005B6A9A4201D0012300E0002318461837A1
:101DFC00BD4680BD0010024080B584B000AF786055
:101E0C0039607B68002B01D10123D0E06A4B1B6841
:101E1C0003F007033A689A4210D9674B1B6823F00A
:101E2C00070265493B6813430B60634B1B6803F067
:101E3C0007033A689A4201D00123B8E07B681B681B
:101E4C0003F00203002B20D07B681B6803F0040313
:101E5C00002B05D0594B5B68584A43F4E063536040
:101E6C007B681B6803F00803002B05D0534B5B68A1
:101E7C00524A43F460535360504B5B6823F0F002BA
:101E8C007B689B684D4913434B607B681B6803F070
:101E9C000103002B40D07B685B68012B07D1474BBB
:101EAC001B6803F40033002B15D101237FE07B6802
:101EBC005B68022B07D1414B1B6803F00073002BAE
:101ECC0009D1012373E03D4B1B6803F00203002B87
:101EDC0001D101236BE0394B5B6823F003027B6873
:101EEC005B68364913434B60FEF7B0FCF8600AE0C0
:101EFC00FEF7ACFC0246FB68D31A41F288329342DF
:101F0C0001D9032353E02D4B5B6803F00C027B6873
:101F1C005B689B009A42EBD1274B1B6803F00703CD
:101F2C003A689A4210D2244B1B6823F007022249CC
:101F3C003B6813430B60204B1B6803F007033A68A4
:101F4C009A4201D0012332E07B681B6803F0040342
:101F5C00002B08D0194B5B6823F4E0627B68DB68CC
:101F6C00164913434B607B681B6803F00803002B76
:101F7C0009D0124B5B6823F460527B681B69DB0051
:101F8C000E4913434B6000F021F802460B4B5B6883
:101F9C001B0903F00F030A49CB5C22FA03F3094A2D
:101FAC001360094B1B681846FEF70EFC00231846FD
:101FBC001037BD4680BD00BF00200240001002401B
:101FCC007C3E0008000000200400002090B48AB081
:101FDC0000AF294B3C1D0FCB84E80F0040F20123CE
:101FEC003B800023FB610023BB6100237B62002349
:101FFC007B6100233B62214B5B68FB61FB6903F057
:10200C000C03042B02D0082B03D02BE01C4B3B629F
:10201C002BE0FB699B0C03F00F0328333B4413F8B4
:10202C00243C7B61FB6903F48033002B12D0134BEF
:10203C005B685B0C03F0010328333B4413F8283C2A
:10204C00BB617B690E4A03FB02F2BB69B2FBF3F383
:10205C007B6204E07B690B4A02FB03F37B627B6AC5
:10206C003B6202E0064B3B6200BF3B6A18462837D6
:10207C00BD4690BC704700BF6C3E0008001002408B
:10208C0000127A0000093D0080B400AF024B1B68BF
:10209C001846BD4680BC70470000002080B500AFDC
:1020AC00FFF7F2FF0246054B5B681B0A03F00703C0
:1020BC000349CB5C22FA03F3184680BD00100240A2
:1020CC008C3E000880B500AFFFF7DEFF0246054BE3
:1020DC005B68DB0A03F007030349CB5C22FA03F3CA
:1020EC00184680BD001002408C3E000880B485B0BC
:1020FC0000AF78600A4B1B680A4AA2FB03235B0AF9
:10210C007A6802FB03F3FB6000BFFB685A1EFA609F
:10211C00002BF9D100BF00BF1437BD4680BC7047FF
:10212C0000000020D34D621080B586B000AF7860FF
:10213C0000233B610023FB607B681B6803F00103F9
:10214C00002B7DD00023FB754F4BDB6903F08053D4
:10215C00002B0DD14C4BDB694B4A43F08053D361C0
:10216C00494BDB6903F08053BB60BB680123FB75F3
:10217C00464B1B6803F48073002B18D1434B1B6830
:10218C00424A43F480731360FEF760FB386108E049
:10219C00FEF75CFB02463B69D31A642B01D903237F
:1021AC006DE03A4B1B6803F48073002BF0D0364B78
:1021BC001B6A03F44073FB60FB68002B2ED07B681A
:1021CC005B6803F44073FA689A4227D02E4B1B6A63
:1021DC0023F44073FB602E4B01221A602C4B00221F
:1021EC001A60294AFB681362FB6803F00103002B99
:1021FC0014D0FEF72BFB38610AE0FEF727FB0246F2
:10220C003B69D31A41F28832934201D9032336E059
:10221C001D4B1B6A03F00203002BEED01A4B1B6AFA
:10222C0023F440727B685B68174913430B62FB7D98
:10223C00012B05D1144BDB69134A23F08053D36176
:10224C007B681B6803F00203002B08D00E4B5B6805
:10225C0023F440427B689B680B4913434B607B68BB
:10226C001B6803F01003002B08D0074B5B6823F4AA
:10227C0080027B68DB68044913434B6000231846DB
:10228C001837BD4680BD00BF0010024000700040F2
:10229C004004424280B582B000AF78607B68002B6E
:1022AC0001D1012341E07B6893F83D30DBB2002B78
:1022BC0006D17B68002283F83C207868FEF750F941
:1022CC007B68022283F83D207B681A687B680433A4
:1022DC001946104600F074FA7B68012283F84620F8
:1022EC007B68012283F83E207B68012283F83F2023
:1022FC007B68012283F840207B68012283F841200F
:10230C007B68012283F842207B68012283F84320FA
:10231C007B68012283F844207B68012283F84520E6
:10232C007B68012283F83D20002318460837BD4600
:10233C0080BD000080B485B000AF78607B6893F8F6
:10234C003D30DBB2012B01D0012335E07B6802224A
:10235C0083F83D207B681B68DA687B681B6842F059
:10236C000102DA607B681B68164A934209D07B68CD
:10237C001B68B3F1804F04D07B681B68124A9342F0
:10238C0011D17B681B689B6803F00703FB60FB683B
:10239C00062B10D07B681B681A687B681B6842F0A0
:1023AC0001021A6007E07B681B681A687B681B686F
:1023BC0042F001021A60002318461437BD4680BC57
:1023CC00704700BF002C01400004004080B582B073
:1023DC0000AF78607B681B681B6903F00203022B5B
:1023EC0022D17B681B68DB6803F00203022B1BD134
:1023FC007B681B686FF002021A617B6801221A77F6
:10240C007B681B689B6903F00303002B03D078687F
:10241C0000F0BAF905E0786800F0ADF9786800F0E2
:10242C00BCF97B6800221A777B681B681B6903F078
:10243C000403042B22D17B681B68DB6803F00403C4
:10244C00042B1BD17B681B686FF004021A617B683C
:10245C0002221A777B681B689B6903F44073002B7C
:10246C0003D0786800F090F905E0786800F083F903
:10247C00786800F092F97B6800221A777B681B68F9
:10248C001B6903F00803082B22D17B681B68DB68EF
:10249C0003F00803082B1BD17B681B686FF0080244
:1024AC001A617B6804221A777B681B68DB6903F06E
:1024BC000303002B03D0786800F066F905E0786818
:1024CC0000F059F9786800F068F97B6800221A77F7
:1024DC007B681B681B6903F01003102B22D17B68EF
:1024EC001B68DB6803F01003102B1BD17B681B6887
:1024FC006FF010021A617B6808221A777B681B68E0
:10250C00DB6903F44073002B03D0786800F03CF9CE
:10251C0005E0786800F02FF9786800F03EF97B68E8
:10252C0000221A777B681B681B6903F00103012BDF
:10253C000ED17B681B68DB6803F00103012B07D10C
:10254C007B681B686FF001021A61786800F00AF969
:10255C007B681B681B6903F08003802B0ED17B68A2
:10256C001B68DB6803F08003802B07D17B681B683A
:10257C006FF080021A61786800F071FA7B681B6852
:10258C001B6903F04003402B0ED17B681B68DB6892
:10259C0003F04003402B07D17B681B686FF04002AF
:1025AC001A61786800F002F97B681B681B6903F0FC
:1025BC002003202B0ED17B681B68DB6803F0200303
:1025CC00202B07D17B681B686FF020021A6178689A
:1025DC0000F03CFA00BF0837BD4680BD80B584B022
:1025EC0000AF786039607B6893F83C30012B01D1E7
:1025FC000223B3E07B68012283F83C207B68022233
:10260C0083F83D207B681B689B68FB60FB6823F0AC
:10261C007703FB60FB6823F47F43FB607B681B68DC
:10262C00FA689A603B681B68B3F5005F3ED0B3F55F
:10263C00005F00F28780B3F5805F00F08580B3F512
:10264C00805F7FD8702B1AD0702B7BD8602B50D02A
:10265C00602B77D8502B3CD0502B73D8402B58D0B4
:10266C00402B6FD8302B64D0302B6BD8202B60D004
:10267C00202B67D8002B5CD0102B5AD062E07B68E3
:10268C0018683B6899683B685A683B68DB6800F0DF
:10269C0066F97B681B689B68FB60FB6843F07703FB
:1026AC00FB607B681B68FA689A604EE07B68186870
:1026BC003B6899683B685A683B68DB6800F04FF9E7
:1026CC007B681B689A687B681B6842F480429A603E
:1026DC003BE07B6818683B6859683B68DB681A46C6
:1026EC0000F0C6F87B681B685021184600F01DF9F5
:1026FC002BE07B6818683B6859683B68DB681A46B6
:10270C0000F0E4F87B681B686021184600F00DF9B6
:10271C001BE07B6818683B6859683B68DB681A46A5
:10272C0000F0A6F87B681B684021184600F0FDF805
:10273C000BE07B681A683B681B681946104600F072
:10274C00F4F802E000BF00E000BF7B68012283F8D0
:10275C003D207B68002283F83C200023184610376C
:10276C00BD4680BD80B483B000AF786000BF0C372D
:10277C00BD4680BC704780B483B000AF786000BFAA
:10278C000C37BD4680BC704780B483B000AF786016
:10279C0000BF0C37BD4680BC704780B483B000AF1F
:1027AC00786000BF0C37BD4680BC704780B483B0E6
:1027BC0000AF786000BF0C37BD4680BC704700008E
:1027CC0080B485B000AF786039607B681B68FB60B3
:1027DC007B68254A934207D07B68B3F1804F03D0C6
:1027EC007B68224A934208D1FB6823F07003FB609C
:1027FC003B685B68FA681343FB607B681A4A934238
:10280C0007D07B68B3F1804F03D07B68174A9342A3
:10281C0008D1FB6823F44073FB603B68DB68FA6803
:10282C001343FB60FB6823F080023B685B69134336
:10283C00FB607B68FA681A603B689A687B68DA62AE
:10284C003B681A687B689A627B68074A934203D19B
:10285C003B681A697B681A637B6801225A6100BF66
:10286C001437BD4680BC7047002C0140000400406A
:10287C0080B487B000AFF860B9607A60FB681B6AFF
:10288C007B61FB681B6A23F00102FB681A62FB6820
:10289C009B693B613B6923F0F0033B617B681B0147
:1028AC003A6913433B617B6923F00A037B617A69C4
:1028BC00BB6813437B61FB683A699A61FB687A6970
:1028CC001A6200BF1C37BD4680BC704780B487B00D
:1028DC0000AFF860B9607A60FB681B6A23F01002E5
:1028EC00FB681A62FB689B697B61FB681B6A3B6136
:1028FC007B6923F470437B617B681B037A69134308
:10290C007B613B6923F0A0033B61BB681B013A6907
:10291C0013433B61FB687A699A61FB683A691A62F6
:10292C0000BF1C37BD4680BC704780B485B000AF7B
:10293C00786039607B689B68FB60FB6823F07003F0
:10294C00FB603A68FB68134343F00703FB607B684A
:10295C00FA689A6000BF1437BD4680BC704780B4DB
:10296C0087B000AFF860B9607A603B60FB689B6829
:10297C007B617B6923F47F437B613B681A027B6834
:10298C001A43BB6813437A6913437B61FB687A690A
:10299C009A6000BF1C37BD4680BC704780B485B0C0
:1029AC0000AF786039607B6893F83C30012B01D123
:1029BC00022341E07B68012283F83C207B680222E1
:1029CC0083F83D207B681B685B68FB607B681B6839
:1029DC009B68BB60FB6823F07003FB603B681B6863
:1029EC00FA681343FB607B681B68FA685A607B6863
:1029FC001B68144A934209D07B681B68B3F1804F63
:102A0C0004D07B681B68104A93420CD1BB6823F03E
:102A1C008003BB603B685B68BA681343BB607B6830
:102A2C001B68BA689A607B68012283F83D207B683A
:102A3C00002283F83C20002318461437BD4680BC86
:102A4C00704700BF002C01400004004080B483B0EC
:102A5C0000AF786000BF0C37BD4680BC704780B4B7
:102A6C0083B000AF786000BF0C37BD4680BC7047A8
:102A7C0080B582B000AF78607B68002B01D1012358
:102A8C003FE07B6893F83D30DBB2002B06D17B68CE
:102A9C00002283F83C207868FDF786FD7B682422B1
:102AAC0083F83D207B681B68DA687B681B6822F41E
:102ABC000052DA60786800F085FC7B681B681A6944
:102ACC007B681B6822F490421A617B681B685A6908
:102ADC007B681B6822F02A025A617B681B68DA68E3
:102AEC007B681B6842F40052DA607B6800221A642F
:102AFC007B68202283F83D207B68202283F83E20CF
:102B0C00002318460837BD4680BD80B58AB002AF99
:102B1C00F860B9603B601346FB8000237B61FB6867
:102B2C0093F83D30DBB2202B7CD1BB68002B02D05C
:102B3C00FB88002B01D1012375E0FB6893F83C3036
:102B4C00012B01D102236EE0FB68012283F83C20AB
:102B5C00FB6800221A64FB68212283F83D20FDF7F4
:102B6C0075FE7861FB68FA889A84FB68FA88DA84C7
:102B7C00FB689B68B3F5805F08D1FB681B69002B71
:102B8C0004D10023FB61BB68BB6103E0BB68FB6144
:102B9C000023BB61FB68002283F83C202AE03B68E1
:102BAC0000937B6900228021F86800F038FA034614
:102BBC00002B01D0032336E0FB69002B0BD1BB6942
:102BCC001B881A46FB681B68C2F308025A60BB6973
:102BDC000233BB6107E0FB691A78FB681B685A601B
:102BEC00FB690133FB61FB68DB8C9BB2013B9AB246
:102BFC00FB68DA84FB68DB8C9BB2002BCFD13B6883
:102C0C0000937B6900224021F86800F008FA034623
:102C1C00002B01D0032306E0FB68202283F83D2023
:102C2C00002300E0022318462037BD4680BD80B546
:102C3C0084B000AFF860B9601346FB80FB6893F872
:102C4C003E30DBB2202B1DD1BB68002B02D0FB88A1
:102C5C00002B01D1012316E0FB6893F83C30012BCB
:102C6C0001D102230FE0FB68012283F83C20FB68B2
:102C7C0000221A63FB881A46B968F86800F019FA42
:102C8C00034600E0022318461037BD4680BD000005
:102C9C0080B58AB000AF78607B681B681B687B626C
:102CAC007B681B68DB683B627B681B685B69FB614C
:102CBC000023BB6100237B617B6A03F00F03BB61C4
:102CCC00BB69002B0DD17B6A03F02003002B08D0CD
:102CDC003B6A03F02003002B03D0786800F0C9FA9C
:102CEC007BE1BB69002B00F0B180FB6903F00103B1
:102CFC00002B05D13B6A03F49073002B00F0A680E7
:102D0C007B6A03F00103002B0AD03B6A03F4807347
:102D1C00002B05D07B681B6C43F001027B681A64A6
:102D2C007B6A03F00403002B0AD0FB6903F0010358
:102D3C00002B05D07B681B6C43F002027B681A6485
:102D4C007B6A03F00203002B0AD0FB6903F001033A
:102D5C00002B05D07B681B6C43F004027B681A6463
:102D6C007B6A03F00803002B0FD03B6A03F02003AF
:102D7C00002B04D1FB6903F00103002B05D07B6809
:102D8C001B6C43F008027B681A647B681B6C002B7D
:102D9C0000F01E817B6A03F02003002B07D03B6AF6
:102DAC0003F02003002B02D0786800F062FA7B68F5
:102DBC001B685B6903F04003002B14BF0123002345
:102DCC00DBB27B617B681B6C03F00803002B02D128
:102DDC007B69002B31D0786800F0A4F97B681B6804
:102DEC005B6903F04003002B23D07B681B685A6996
:102DFC007B681B6822F040025A617B689B6B002B3E
:102E0C0013D07B689B6B764A5A637B689B6B184626
:102E1C00FEF74CFB0346002B16D07B689B6B5B6B61
:102E2C007A68926B104698470EE0786800F0E3F8E9
:102E3C000AE0786800F0DFF806E0786800F0DBF86C
:102E4C007B6800221A64C3E000BFC1E07B681B6B87
:102E5C00012B40F0A1807B6A03F01003002B00F0E3
:102E6C009B803B6A03F01003002B00F0958000233D
:102E7C00FB607B681B681B68FB607B681B685B687E
:102E8C00FB60FB687B681B685B6903F04003002BED
:102E9C004ED07B689B6B1B685B683B823B8A002B2C
:102EAC0000F098807B689B8D3A8A9A4280F09280E1
:102EBC007B683A8ADA857B689B6B9B69202B2BD0CD
:102ECC007B681B68DA687B681B6822F48072DA60A6
:102EDC007B681B685A697B681B6822F001025A6187
:102EEC007B681B685A697B681B6822F040025A6138
:102EFC007B68202283F83E207B6800221A637B6863
:102F0C001B68DA687B681B6822F01002DA607B6849
:102F1C009B6B1846FEF78FFA7B689A8D7B68DB8D6E
:102F2C009BB2D31A9BB21946786800F06DF851E049
:102F3C007B689A8D7B68DB8D9BB2D31A7B827B6816
:102F4C00DB8D9BB2002B47D07B8A002B44D07B6857
:102F5C001B68DA687B681B6822F49072DA607B6805
:102F6C001B685A697B681B6822F001025A617B68F6
:102F7C00202283F83E207B6800221A637B681B6842
:102F8C00DA687B681B6822F01002DA607B8A1946CB
:102F9C00786800F039F81FE07B6A03F08003002B9F
:102FAC0008D03B6A03F08003002B03D0786800F054
:102FBC00F9F812E07B6A03F04003002B0DD03B6A5A
:102FCC0003F04003002B08D0786800F03AF904E0D5
:102FDC0000BF02E000BF00E000BF2837BD4680BD47
:102FEC008931000880B483B000AF786000BF0C3723
:102FFC00BD4680BC704780B483B000AF786000BF22
:10300C000C37BD4680BC704780B483B000AF78608D
:10301C000B467B8000BF0C37BD4680BC704780B52B
:10302C0084B000AFF860B9603B601346FB712CE0D4
:10303C00BB69B3F1FF3F28D0BB69002B07D0FDF76C
:10304C0005FC02463B68D31ABA699A421DD2FB684A
:10305C001B68DA68FB681B6822F4D072DA60FB68C4
:10306C001B685A69FB681B6822F001025A61FB68F5
:10307C00202283F83D20FB68202283F83E20FB6849
:10308C00002283F83C2003230FE0FB681B681A68BE
:10309C00BB681340BA689A420CBF01230023DBB211
:1030AC001A46FB799A42C3D0002318461037BD4606
:1030BC0080BD80B485B000AFF860B9601346FB806A
:1030CC00FB68BA689A62FB68FA889A85FB68FA888A
:1030DC00DA85FB6800221A64FB68222283F83E2002
:1030EC00FB68002283F83C20FB681B68DA68FB68ED
:1030FC001B6842F48072DA60FB681B685A69FB68D3
:10310C001B6842F001025A61FB681B68DA68FB68B5
:10311C001B6842F02002DA60002318461437BD46C3
:10312C0080BC704780B483B000AF78607B681B684C
:10313C00DA687B681B6822F49072DA607B681B6823
:10314C005A697B681B6822F001025A617B681B6B11
:10315C00012B07D17B681B68DA687B681B6822F03F
:10316C001002DA607B68202283F83E207B68002204
:10317C001A6300BF0C37BD4680BC704780B584B065
:10318C0000AF78607B685B6AFB60FB680022DA85C5
:10319C00FB680022DA84F868FFF72DFF00BF1037B8
:1031AC00BD4680BD80B485B000AF78607B6893F875
:1031BC003D30DBB2212B3ED17B689B68B3F5805F41
:1031CC0014D17B681B69002B10D17B681B6AFB60D8
:1031DC00FB681B881A467B681B68C2F308025A609E
:1031EC007B681B6A9A1C7B681A6208E07B681B6A06
:1031FC00591C7A6811621A787B681B685A607B6864
:10320C00DB8C9BB2013B9BB27A681946D184002BB4
:10321C000FD17B681B68DA687B681B6822F0800220
:10322C00DA607B681B68DA687B681B6842F04002D6
:10323C00DA60002300E0022318461437BD4680BC38
:10324C00704780B582B000AF78607B681B68DA6825
:10325C007B681B6822F04002DA607B68202283F8CE
:10326C003D207868FFF7BEFE002318460837BD46A0
:10327C0080BD80B586B000AF78607B6893F83E3037
:10328C00DBB2222B40F099807B689B68B3F5805FA2
:10329C0017D17B681B69002B13D100237B617B68E2
:1032AC009B6A3B617B681B685B689BB2C3F308033A
:1032BC009AB23B691A807B689B6A9A1C7B689A62FB
:1032CC0026E07B689B6A7B6100233B617B689B6883
:1032DC00B3F5805F07D07B689B68002B0AD17B68B5
:1032EC001B69002B06D17B681B685B68DAB27B69B3
:1032FC001A7008E07B681B685B68DBB203F07F0325
:10330C00DAB27B691A707B689B6A5A1C7B689A627A
:10331C007B68DB8D9BB2013B9BB27A681946D185E9
:10332C00002B48D17B681B68DA687B681B6822F02D
:10333C002002DA607B681B68DA687B681B6822F401
:10334C008072DA607B681B685A697B681B6822F0A4
:10335C0001025A617B68202283F83E207B681B6B3C
:10336C00012B23D17B6800221A637B681B68DA6807
:10337C007B681B6822F01002DA607B681B681B6894
:10338C0003F01003102B0AD10023FB607B681B6831
:10339C001B68FB607B681B685B68FB60FB687B6879
:1033AC009B8D19467868FFF72FFE02E07868FCF7D2
:1033BC00C7FE002302E0002300E002231846183762
:1033CC00BD4680BD80B584B000AF78607B681B685B
:1033DC001B6923F440517B68DA687B681B680A43DD
:1033EC001A617B689A687B681B691A437B685B6906
:1033FC001343BB607B681B68DB6823F4B05323F07A
:10340C000C037A681268B9680B43D3607B681B683D
:10341C005B6923F440717B689A697B681B680A437B
:10342C005A617B681B682C4A934203D1FEF74AFE13
:10343C00F86002E0FEF732FEF860FA6813469B0073
:10344C0013449A001A447B685B689B00B2FBF3F34D
:10345C00224AA2FB03235B091901FA6813469B005D
:10346C0013449A001A447B685B689B00B2FBF3F22E
:10347C001A4BA3FB02035B09642000FB03F3D31A72
:10348C001B013233154AA2FB03235B0903F0F00343
:10349C001944FA6813469B0013449A001A447B683B
:1034AC005B689B00B2FBF3F20C4BA3FB02035B09C2
:1034BC00642000FB03F3D31A1B013233074AA2FB2F
:1034CC0003235B0903F00F027B681B680A449A60B4
:1034DC0000BF1037BD4680BD003801401F85EB5141
:1034EC00014B1868704700BF0C00002070B5002617
:1034FC000C4D0D4C641BA410A64209D100F09CFC91
:10350C0000260A4D0A4C641BA410A64205D170BDBE
:10351C0055F8043B98470136EEE755F8043B9847BD
:10352C000136F2E7C83E0008C83E0008C83E000855
:10353C00CC3E000803460244934200D1704703F886
:10354C00011BF9E70EB46FF0004100B59CB01DAB48
:10355C0002900690079104910848094953F8042BEE
:10356C000591006802A9019300F068F80022029B03
:10357C001A701CB05DF804EB03B070470C0000200F
:10358C000802FFFF2DE9F0478E6882469E420C46EA
:10359C0090461F4638D88A8912F4906F32D025682D
:1035AC0009690133A5EB010965694B4405EB450538
:1035BC0005EBD5756D109D4238BF1D46530531D5B1
:1035CC00294600F06FFB064650B90C234FF0FF3034
:1035DC00CAF80030A38943F04003A381BDE8F0870B
:1035EC004A46216900F0CEFAA38923F4906343F094
:1035FC008003A38126614E4426603E466561A5EB9F
:10360C000905A560BE4200D93E46324641462068B7
:10361C0000F0C6FAA36800209B1BA3602368334408
:10362C002360DBE72A4600F0B1FB06460028E1D117
:10363C005046216900F0CEFAC7E700002DE9F04FA3
:10364C0098468B8907461B060D4614469DB00ED531
:10365C000B6963B9402100F025FB2860286120B973
:10366C000C233B604FF0FF30D1E040236B61002313
:10367C00099320238DF8293030234FF00109CDF820
:10368C000C80DFF8A4818DF82A3023469A4613F873
:10369C00012B0AB1252AF9D1BAEB040B0BD05B46EE
:1036AC00224629463846FFF76DFF013000F0AA800C
:1036BC00099A5A4409929AF80030002B00F0A28023
:1036CC0000234FF0FF32CDE905230AF1010A0493E0
:1036DC0007938DF853301A935446052214F8011BA6
:1036EC00514800F041FA049AD8B9D00644BF2023BF
:1036FC008DF85330110744BF2B238DF853309AF8B3
:10370C0000302A2B15D0544600204FF00A0C079A93
:10371C00214611F8013B303B092B4ED9B0B1079231
:10372C0014E0A0EB080309FA03F31343A246049335
:10373C00D2E7039B191D1B680391002BBBBF5B4297
:10374C0042F0020207930793B8BF049223782E2B02
:10375C000CD163782A2B35D1039B02341A1D1B68BC
:10376C000392002BB8BF4FF0FF330593DFF8BCA0DA
:10377C0003225046217800F0F7F940B14023A0EB2A
:10378C000A0003FA00F0049B01340343049314F879
:10379C00011B062226488DF8281000F0E5F90028B8
:1037AC0038D0244B1BBB039B073323F00703083390
:1037BC000393099B3344099367E70C4601200CFBE8
:1037CC000232A5E700234FF00A0C19460134059389
:1037DC00204610F8012B303A092A03D9002BC5D00A
:1037EC000591C3E7044601230CFB0121F0E703AB71
:1037FC0000932A463846104B04A9AFF30080421CB4
:10380C000646D6D1AB895B063FF52CAF09981DB0A7
:10381C00BDE8F08F03AB00932A463846064B04A94B
:10382C0000F07CF8EBE700BF943E00089A3E0008DD
:10383C009E3E000800000000913500082DE9F0477D
:10384C00164699468A680B6907469342B8BF1346D9
:10385C00336091F843200C46DDF820800AB1013327
:10386C0033602368990642BF33680233336025689E
:10387C0015F0060506D104F1190AE36832689B1AA3
:10388C00AB4228DC94F84320131E226818BF012396
:10389C0092062DD44946384604F14302C047013004
:1038AC0020D02368E56803F00603042B18BF00251D
:1038BC0032684FF00006A36808BFAD1A226908BF32
:1038CC0025EAE5759342C4BF9B1AED181A34B5422C
:1038DC001AD1002008E00123524649463846C04719
:1038EC00013003D14FF0FF30BDE8F0870135C4E75C
:1038FC003020E11881F843005A1C94F845102244FA
:10390C00023382F84310C5E7012322464946384664
:10391C00C0470130E6D00136D9E700002DE9FF475A
:10392C000F7E9146782F80460C469A460C9D01F1ED
:10393C00430207D8622F0AD8002F00F0D980582FE5
:10394C0000F0A48004F1420584F842703AE0A7F13B
:10395C006303152BF6D801A151F823F0C1390008E7
:10396C00D53900085139000851390008513900087F
:10397C0051390008D539000851390008513900086F
:10398C005139000851390008E33A0008053A00089B
:10399C00C53A00085139000851390008053B0008A8
:1039AC0051390008053A000851390008513900080E
:1039BC00CD3A00082B681A1D1B682A6004F14205D9
:1039CC0084F842300123A4E020682968060601F13E
:1039DC0004030AD50E682B60002E03DA2D237642E1
:1039EC0084F843300A235E4819E00E6810F0400F4B
:1039FC002B6018BF36B2EFE72B682068191D2960C1
:103A0C00010601D51E6802E04606FBD51E886F2F05
:103A1C000CBF08230A235248002184F84310656820
:103A2C00002DA8BF2168A560A4BF21F0040121606E
:103A3C000EB9002D4DD01546B6FBF3F103FB116703
:103A4C00C75D05F8017D3746BB420E46F4D9082BFD
:103A5C000BD12368DE0708D5236961689942DEBF64
:103A6C00302305F8013C05F1FF35521B22614B4612
:103A7C0021464046CDF800A003AAFFF7DFFE013037
:103A8C004CD14FF0FF3004B0BDE8F087344881F8DA
:103A9C0045702968236851F8046B29601D0614D5FC
:103AAC00DF0744BF43F0200323601EB9236823F0D3
:103ABC00200323601023AFE7236843F02003236027
:103ACC007823284884F84530E3E7590648BFB6B256
:103ADC00E6E71546BBE72B682668181D6169286068
:103AEC0035061B6801D5196002E07006FBD51980FC
:103AFC00002315462361BAE72B6800211A1D2A60A2
:103B0C001D686268284600F02FF808B1401B606001
:103B1C0063682361002384F84330A8E72A464946AA
:103B2C0040462369D0470130ABD023689B0713D4A0
:103B3C00E068039B9842B8BF1846A4E701233246BD
:103B4C0049464046D04701309BD00135E368039984
:103B5C005B1AAB42F2DCEBE7002504F11906F5E742
:103B6C00A53E0008B63E0008034610B5C9B2024493
:103B7C009342184601D1002003E0047801338C42B3
:103B8C00F6D110BD0A44914200F1FF3300D17047C9
:103B9C0010B511F8014B914203F8014FF9D110BD4A
:103BAC00884210B501EB020402D98442234607D89F
:103BBC00431EA14208D011F8012B03F8012FF8E79E
:103BCC00014602448A4200D110BD13F8014D02F89F
:103BDC00014DF7E738B50546002940D051F8043CB3
:103BEC000C1F002BB8BFE41800F010F91C4A136826
:103BFC0033B9636014602846BDE8384000F00CB956
:103C0C00A34208D9206821188B4201BF19685B6850
:103C1C0009182160EDE71A465B680BB1A342FAD98B
:103C2C0011685018A0420BD12068014450188342EF
:103C3C001160E0D118685B68014411605360DAE7E9
:103C4C0002D90C232B60D6E7206821188B4201BFC8
:103C5C0019685B680918216063605460CBE738BD54
:103C6C005401002070B50E4E0C463168054611B952
:103C7C0000F0BCF830602146284600F0B7F8431C31
:103C8C000AD0C41C24F00304A04207D0211A2846F1
:103C9C0000F0ACF8013001D14FF0FF34204670BD7C
:103CAC00580100202DE9F041CD1C25F00305083505
:103CBC000C2D38BF0C25002D074601DBA94205D978
:103CCC000C2300263B603046BDE8F0812E4E00F000
:103CDC009DF833681C4634BB29463846FFF7C2FFB3
:103CEC00431C04464DD134682646002E40D123682F
:103CFC003146384604EB030800F078F880453AD199
:103D0C00216803356D1A25F0030508350C2D38BFD5
:103D1C000C2538462946FFF7A5FF01302BD0236828
:103D2C002B4423600EE02268521B1ED40B2A16D99A
:103D3C006119A342256018BF5960636808BF3160E0
:103D4C0062514B60384604F10B0600F065F826F022
:103D5C000706231DF21AB6D09B1BA350B3E762686B
:103D6C00A3420CBF32605A60ECE723466468B2E7AA
:103D7C0034467668B9E70C2338463B6000F04CF8C3
:103D8C00A1E72560DEE700BF540100202DE9F041DA
:103D9C00804614460E4621B91146BDE8F041FFF7A6
:103DAC0081BF2AB9FFF716FF25462846BDE8F081EA
:103DBC0000F038F88442074602D8B4EB500F12D802
:103DCC0021464046FFF76EFF05460028EDD0BC4269
:103DDC002246314628BF3A46FFF7D4FE31464046CC
:103DEC00FFF7F8FEE1E73546DFE7000038B50023C2
:103DFC00054D044608462B60FCF76EFC431C02D1B3
:103E0C002B6803B1236038BD5C010020014800F031
:103E1C0011B800BF60010020014800F00CB800BFD1
:103E2C006001002051F8043C181F002BBCBF0B583C
:103E3C00C018704770477047F8B500BFF8BC08BC95
:103E4C009E467047F8B500BFF8BC08BC9E4670474C
:103E5C004144433A202575202564200A0D000000BA
:103E6C0002030405060708090A0B0C0D0E0F1010AF
:103E7C00000000000000000001020304060708090E
:103E8C000000000001020304232D302B2000686C7D
:103E9C004C00656667454647003031323334353661
:103EAC00373839414243444546003031323334359A
:0C3EBC00363738396162636465660000C7
:043EC80031010008BC
:043ECC000D010008DC
:103ED0000024F40010000000010000001000002089
:103EE00000000000000000000000000000000000D2
:103EF00000000000000000000000000000000000C2
:103F000000000000000000000000000000000000B1
:103F100000000000000000000000000000000000A1
:103F20000000000000000000000000000000000091
:103F30000000000000000000000000000000000081
:040000050800075D8B
:00000001FF
